{
  "address": "0x186ac0678f35361d5676e183278029c84472B2E7",
  "abi": [
    {
      "inputs": [],
      "stateMutability": "nonpayable",
      "type": "constructor"
    },
    {
      "anonymous": false,
      "inputs": [
        {
          "indexed": true,
          "internalType": "address",
          "name": "owner",
          "type": "address"
        },
        {
          "indexed": true,
          "internalType": "address",
          "name": "spender",
          "type": "address"
        },
        {
          "indexed": false,
          "internalType": "uint256",
          "name": "value",
          "type": "uint256"
        }
      ],
      "name": "Approval",
      "type": "event"
    },
    {
      "anonymous": false,
      "inputs": [
        {
          "indexed": false,
          "internalType": "address",
          "name": "account",
          "type": "address"
        },
        {
          "indexed": false,
          "internalType": "bool",
          "name": "can",
          "type": "bool"
        }
      ],
      "name": "LockTransferableChanged",
      "type": "event"
    },
    {
      "anonymous": false,
      "inputs": [
        {
          "indexed": true,
          "internalType": "address",
          "name": "previousOwner",
          "type": "address"
        },
        {
          "indexed": true,
          "internalType": "address",
          "name": "newOwner",
          "type": "address"
        }
      ],
      "name": "OwnershipTransferred",
      "type": "event"
    },
    {
      "anonymous": false,
      "inputs": [
        {
          "indexed": true,
          "internalType": "address",
          "name": "from",
          "type": "address"
        },
        {
          "indexed": true,
          "internalType": "address",
          "name": "to",
          "type": "address"
        },
        {
          "indexed": false,
          "internalType": "uint256",
          "name": "value",
          "type": "uint256"
        }
      ],
      "name": "Transfer",
      "type": "event"
    },
    {
      "anonymous": false,
      "inputs": [
        {
          "indexed": false,
          "internalType": "address",
          "name": "operator",
          "type": "address"
        },
        {
          "indexed": false,
          "internalType": "address",
          "name": "from",
          "type": "address"
        },
        {
          "indexed": false,
          "internalType": "address",
          "name": "to",
          "type": "address"
        },
        {
          "indexed": false,
          "internalType": "uint8",
          "name": "ltype",
          "type": "uint8"
        },
        {
          "indexed": false,
          "internalType": "uint256",
          "name": "amount",
          "type": "uint256"
        }
      ],
      "name": "TransferLock",
      "type": "event"
    },
    {
      "anonymous": false,
      "inputs": [
        {
          "indexed": false,
          "internalType": "uint256",
          "name": "timestamp",
          "type": "uint256"
        }
      ],
      "name": "UplineTimeChanged",
      "type": "event"
    },
    {
      "inputs": [],
      "name": "Release1For10Month",
      "outputs": [
        {
          "internalType": "uint8",
          "name": "",
          "type": "uint8"
        }
      ],
      "stateMutability": "view",
      "type": "function"
    },
    {
      "inputs": [],
      "name": "Release334For2Month",
      "outputs": [
        {
          "internalType": "uint8",
          "name": "",
          "type": "uint8"
        }
      ],
      "stateMutability": "view",
      "type": "function"
    },
    {
      "inputs": [],
      "name": "ReleaseAllAfter1Year",
      "outputs": [
        {
          "internalType": "uint8",
          "name": "",
          "type": "uint8"
        }
      ],
      "stateMutability": "view",
      "type": "function"
    },
    {
      "inputs": [],
      "name": "ReleaseLinearIn1YearAfter1Year",
      "outputs": [
        {
          "internalType": "uint8",
          "name": "",
          "type": "uint8"
        }
      ],
      "stateMutability": "view",
      "type": "function"
    },
    {
      "inputs": [],
      "name": "ReleaseLinearIn1YearAfter2Year",
      "outputs": [
        {
          "internalType": "uint8",
          "name": "",
          "type": "uint8"
        }
      ],
      "stateMutability": "view",
      "type": "function"
    },
    {
      "inputs": [],
      "name": "UPLINE_AT",
      "outputs": [
        {
          "internalType": "uint256",
          "name": "",
          "type": "uint256"
        }
      ],
      "stateMutability": "view",
      "type": "function"
    },
    {
      "inputs": [
        {
          "internalType": "address",
          "name": "owner",
          "type": "address"
        },
        {
          "internalType": "address",
          "name": "spender",
          "type": "address"
        }
      ],
      "name": "allowance",
      "outputs": [
        {
          "internalType": "uint256",
          "name": "",
          "type": "uint256"
        }
      ],
      "stateMutability": "view",
      "type": "function"
    },
    {
      "inputs": [
        {
          "internalType": "address",
          "name": "spender",
          "type": "address"
        },
        {
          "internalType": "uint256",
          "name": "amount",
          "type": "uint256"
        }
      ],
      "name": "approve",
      "outputs": [
        {
          "internalType": "bool",
          "name": "",
          "type": "bool"
        }
      ],
      "stateMutability": "nonpayable",
      "type": "function"
    },
    {
      "inputs": [
        {
          "internalType": "address",
          "name": "account",
          "type": "address"
        }
      ],
      "name": "availableOf",
      "outputs": [
        {
          "internalType": "uint256",
          "name": "",
          "type": "uint256"
        }
      ],
      "stateMutability": "view",
      "type": "function"
    },
    {
      "inputs": [
        {
          "internalType": "address",
          "name": "account",
          "type": "address"
        },
        {
          "internalType": "uint8",
          "name": "ltype",
          "type": "uint8"
        }
      ],
      "name": "balanceDetailOf",
      "outputs": [
        {
          "internalType": "uint256",
          "name": "total",
          "type": "uint256"
        },
        {
          "internalType": "uint256",
          "name": "claimed",
          "type": "uint256"
        },
        {
          "internalType": "uint256",
          "name": "claimable",
          "type": "uint256"
        }
      ],
      "stateMutability": "view",
      "type": "function"
    },
    {
      "inputs": [
        {
          "internalType": "address",
          "name": "account",
          "type": "address"
        }
      ],
      "name": "balanceOf",
      "outputs": [
        {
          "internalType": "uint256",
          "name": "",
          "type": "uint256"
        }
      ],
      "stateMutability": "view",
      "type": "function"
    },
    {
      "inputs": [],
      "name": "claim",
      "outputs": [],
      "stateMutability": "nonpayable",
      "type": "function"
    },
    {
      "inputs": [],
      "name": "decimals",
      "outputs": [
        {
          "internalType": "uint8",
          "name": "",
          "type": "uint8"
        }
      ],
      "stateMutability": "view",
      "type": "function"
    },
    {
      "inputs": [
        {
          "internalType": "address",
          "name": "spender",
          "type": "address"
        },
        {
          "internalType": "uint256",
          "name": "subtractedValue",
          "type": "uint256"
        }
      ],
      "name": "decreaseAllowance",
      "outputs": [
        {
          "internalType": "bool",
          "name": "",
          "type": "bool"
        }
      ],
      "stateMutability": "nonpayable",
      "type": "function"
    },
    {
      "inputs": [
        {
          "internalType": "address",
          "name": "spender",
          "type": "address"
        },
        {
          "internalType": "uint256",
          "name": "addedValue",
          "type": "uint256"
        }
      ],
      "name": "increaseAllowance",
      "outputs": [
        {
          "internalType": "bool",
          "name": "",
          "type": "bool"
        }
      ],
      "stateMutability": "nonpayable",
      "type": "function"
    },
    {
      "inputs": [
        {
          "internalType": "address",
          "name": "account",
          "type": "address"
        }
      ],
      "name": "lockOf",
      "outputs": [
        {
          "internalType": "uint256",
          "name": "balance",
          "type": "uint256"
        }
      ],
      "stateMutability": "view",
      "type": "function"
    },
    {
      "inputs": [],
      "name": "name",
      "outputs": [
        {
          "internalType": "string",
          "name": "",
          "type": "string"
        }
      ],
      "stateMutability": "view",
      "type": "function"
    },
    {
      "inputs": [],
      "name": "owner",
      "outputs": [
        {
          "internalType": "address",
          "name": "",
          "type": "address"
        }
      ],
      "stateMutability": "view",
      "type": "function"
    },
    {
      "inputs": [],
      "name": "renounceOwnership",
      "outputs": [],
      "stateMutability": "nonpayable",
      "type": "function"
    },
    {
      "inputs": [
        {
          "internalType": "address",
          "name": "account",
          "type": "address"
        },
        {
          "internalType": "bool",
          "name": "a",
          "type": "bool"
        }
      ],
      "name": "setLockTransferable",
      "outputs": [],
      "stateMutability": "nonpayable",
      "type": "function"
    },
    {
      "inputs": [
        {
          "internalType": "uint256",
          "name": "at",
          "type": "uint256"
        }
      ],
      "name": "setUplineTime",
      "outputs": [],
      "stateMutability": "nonpayable",
      "type": "function"
    },
    {
      "inputs": [],
      "name": "symbol",
      "outputs": [
        {
          "internalType": "string",
          "name": "",
          "type": "string"
        }
      ],
      "stateMutability": "view",
      "type": "function"
    },
    {
      "inputs": [],
      "name": "totalLock",
      "outputs": [
        {
          "internalType": "uint256",
          "name": "",
          "type": "uint256"
        }
      ],
      "stateMutability": "view",
      "type": "function"
    },
    {
      "inputs": [],
      "name": "totalSupply",
      "outputs": [
        {
          "internalType": "uint256",
          "name": "",
          "type": "uint256"
        }
      ],
      "stateMutability": "view",
      "type": "function"
    },
    {
      "inputs": [
        {
          "internalType": "address",
          "name": "to",
          "type": "address"
        },
        {
          "internalType": "uint256",
          "name": "amount",
          "type": "uint256"
        }
      ],
      "name": "transfer",
      "outputs": [
        {
          "internalType": "bool",
          "name": "",
          "type": "bool"
        }
      ],
      "stateMutability": "nonpayable",
      "type": "function"
    },
    {
      "inputs": [
        {
          "internalType": "address",
          "name": "from",
          "type": "address"
        },
        {
          "internalType": "address",
          "name": "to",
          "type": "address"
        },
        {
          "internalType": "uint256",
          "name": "amount",
          "type": "uint256"
        }
      ],
      "name": "transferFrom",
      "outputs": [
        {
          "internalType": "bool",
          "name": "",
          "type": "bool"
        }
      ],
      "stateMutability": "nonpayable",
      "type": "function"
    },
    {
      "inputs": [
        {
          "internalType": "address",
          "name": "from",
          "type": "address"
        },
        {
          "internalType": "address",
          "name": "to",
          "type": "address"
        },
        {
          "internalType": "uint256[5]",
          "name": "transform",
          "type": "uint256[5]"
        }
      ],
      "name": "transferLock",
      "outputs": [],
      "stateMutability": "nonpayable",
      "type": "function"
    },
    {
      "inputs": [
        {
          "internalType": "address",
          "name": "newOwner",
          "type": "address"
        }
      ],
      "name": "transferOwnership",
      "outputs": [],
      "stateMutability": "nonpayable",
      "type": "function"
    }
  ],
  "transactionHash": "0xd191002eb7fddca6e388a8d512be7640cb1d545548f56091766a003ebcde2b92",
  "args": [],
  "numDeployments": 2,
  "solcInputHash": "17bec542f859992c0781d325e45cfcd6",
  "bytecode": "0x608060405260006007553480156200001657600080fd5b5060405180604001604052806012815260200171233630b6b2902630bab731b4102a37b5b2b760711b8152506040518060400160405280600381526020016211931560ea1b81525081600390816200006f919062000552565b5060046200007e828262000552565b5050506200009b620000956200025460201b60201c565b62000258565b620000aa426213c6806200061e565b600655735e75662eccc9c3e3b18a0f357fd381ef92ad5a0273befe05a040d2de72b7e05a9d16f19f13d261816973ac2a152f5b48fb7a6810dd1db711202d1774d2be730c86fdddf379d52c3a51e9043c9403e418f51cee737174c2f0406568c8a80bc73138519b632f00e52f73a8c94aaa594834be2dab9716004a0d18775fdd2073dc5f0a39adbb8f5003be2ff36697cb14efb9d9f07347cda56d5cf829320e9fe849e84ec533ba93b929732bde6965ddc07eafddb6cce0db9039ace2848ac8620001838960016a6342fd08f00f6378000000620002aa565b6200019c8860006af8277896582678ac000000620002aa565b620001b3876a52b7d2dcc80cd2e400000062000380565b620001ca866a52b7d2dcc80cd2e400000062000380565b620001e38460026a108b2a2c28029094000000620002aa565b620001fc8560026a295be96e64066972000000620002aa565b620002158360036a18d0bf423c03d8de000000620002aa565b6200022c826a422ca8b0a00a425000000062000380565b620002458160046aa56fa5b99019a5c8000000620002aa565b5050505050505050506200065c565b3390565b600580546001600160a01b038381166001600160a01b0319831681179093556040519116919082907f8be0079c531659141344cd1fd0a4f28419497f9722a3daafe3b4186f6b6457e090600090a35050565b6001600160a01b0383166000908152600860205260409020816001820160ff851660058110620002de57620002de62000646565b600202018054600090620002f49084906200061e565b9250508190555081600760008282546200030f91906200061e565b9091555062000322905084600162000446565b60408051308152600060208201526001600160a01b0386168183015260ff851660608201526080810184905290517f282ef86ebc86bbf945ce5816d7cceaa78b1356064a1b75bb2e28b727afe9c4459181900360a00190a150505050565b6001600160a01b038216620003db5760405162461bcd60e51b815260206004820152601f60248201527f45524332303a206d696e7420746f20746865207a65726f206164647265737300604482015260640160405180910390fd5b8060026000828254620003ef91906200061e565b90915550506001600160a01b038216600081815260208181526040808320805486019055518481527fddf252ad1be2c89b69c2b068fc378daa952ba7f163c4a11628f55a4df523b3ef910160405180910390a35050565b6001600160a01b038216600081815260086020908152604091829020805460ff19168515159081179091558251938452908301527f8471f0edc2452c0226acdba770f2ec9dc5e69fa6883a4313205840e6d1f9cb71910160405180910390a15050565b505050565b634e487b7160e01b600052604160045260246000fd5b600181811c90821680620004d957607f821691505b602082108103620004fa57634e487b7160e01b600052602260045260246000fd5b50919050565b601f821115620004a957600081815260208120601f850160051c81016020861015620005295750805b601f850160051c820191505b818110156200054a5782815560010162000535565b505050505050565b81516001600160401b038111156200056e576200056e620004ae565b62000586816200057f8454620004c4565b8462000500565b602080601f831160018114620005be5760008415620005a55750858301515b600019600386901b1c1916600185901b1785556200054a565b600085815260208120601f198616915b82811015620005ef57888601518255948401946001909101908401620005ce565b50858210156200060e5787850151600019600388901b60f8161c191681555b5050505050600190811b01905550565b808201808211156200064057634e487b7160e01b600052601160045260246000fd5b92915050565b634e487b7160e01b600052603260045260246000fd5b611d65806200066c6000396000f3fe608060405234801561001057600080fd5b50600436106101c45760003560e01c806370a08231116100f9578063a9059cbb11610097578063d546da9011610071578063d546da9014610374578063dd62ed3e14610387578063f2fde38b146103c0578063f54012e8146103d357600080fd5b8063a9059cbb14610346578063b2d30ccb14610359578063bcbb78ff1461036c57600080fd5b806395d89b41116100d357806395d89b41146102f4578063986fa76e146102fc5780639bee3af114610305578063a457c2d71461033357600080fd5b806370a08231146102be578063715018a6146102d15780638da5cb5b146102d957600080fd5b80633a1aae35116101665780635a46d3b5116101405780635a46d3b5146102885780635b5ee44c1461029b5780635dacc5ec146102a35780636490afa3146102ab57600080fd5b80633a1aae35146102705780633bf9ec70146102785780634e71d92d1461028057600080fd5b806323b872dd116101a257806323b872dd146102205780633125b7c914610233578063313ce56714610248578063395093511461025d57600080fd5b806306fdde03146101c9578063095ea7b3146101e757806318160ddd1461020a575b600080fd5b6101d16103db565b6040516101de91906119d6565b60405180910390f35b6101fa6101f5366004611a40565b61046d565b60405190151581526020016101de565b610212610487565b6040519081526020016101de565b6101fa61022e366004611a6a565b6104a4565b610246610241366004611aa6565b6104c8565b005b60125b60405160ff90911681526020016101de565b6101fa61026b366004611a40565b6104dc565b600754610212565b61024b600381565b61024661051b565b610212610296366004611abf565b610525565b61024b600081565b61024b600281565b6102466102b9366004611af0565b61067e565b6102126102cc366004611abf565b6107ad565b6102466107e0565b6005546040516001600160a01b0390911681526020016101de565b6101d16107f2565b61021260065481565b610318610313366004611b91565b610801565b604080519384526020840192909252908201526060016101de565b6101fa610341366004611a40565b6108d3565b6101fa610354366004611a40565b61097d565b610246610367366004611bce565b61098b565b61024b600181565b610212610382366004611abf565b6109a1565b610212610395366004611bff565b6001600160a01b03918216600090815260016020908152604080832093909416825291909152205490565b6102466103ce366004611abf565b6109bf565b61024b600481565b6060600380546103ea90611c32565b80601f016020809104026020016040519081016040528092919081815260200182805461041690611c32565b80156104635780601f1061043857610100808354040283529160200191610463565b820191906000526020600020905b81548152906001019060200180831161044657829003601f168201915b5050505050905090565b60003361047b818585610a4c565b60019150505b92915050565b600060075461049560025490565b61049f9190611c82565b905090565b6000336104b2858285610ba4565b6104bd858585610c30565b506001949350505050565b6104d0610c93565b6104d981610ced565b50565b3360008181526001602090815260408083206001600160a01b038716845290915281205490919061047b9082908690610516908790611c82565b610a4c565b610523610d84565b565b6001600160a01b038116600090815260086020908152604080832081518083018352815460ff1615158152825160a08101909352849390929083019060018301600586835b828210156105a657838260020201604051806040016040529081600082015481526020016001820154815250508152602001906001019061056a565b505050915250506020818101515190810151815192935090916105c99190611cab565b6105d39084611c82565b6020838101518101519081015181519295509092506105f191611cab565b6105fb9084611c82565b6020838101516040015190810151815192955090925061061a91611cab565b6106249084611c82565b6020838101516060015190810151815192955090925061064391611cab565b61064d9084611c82565b6020838101516080015190810151815192955090925061066c91611cab565b6106769084611c82565b949350505050565b6001600160a01b03831660009081526008602052604090205460ff166106eb5760405162461bcd60e51b815260206004820152601f60248201527f66726f6d20616464726573732063616e2774207472616e666572206c6f636b0060448201526064015b60405180910390fd5b336001600160a01b038416811461079c576000805b600581101561073e5783816005811061071b5761071b611c95565b602002015161072a9083611c82565b91508061073681611cbe565b915050610700565b506000811161078f5760405162461bcd60e51b815260206004820152601460248201527f7370656e64207a65726f20616c6c6f77616e636500000000000000000000000060448201526064016106e2565b61079a858383610ba4565b505b6107a7848484610e77565b50505050565b6001600160a01b0381166000908152602081905260408120546107cf83610525565b6107d99082611c82565b9392505050565b6107e8610c93565b610523600061137b565b6060600480546103ea90611c32565b6001600160a01b038216600090815260086020908152604080832081518083018352815460ff1615158152825160a081019093528493849384939183019060018301600586835b82821015610884578382600202016040518060400160405290816000820154815260200160018201548152505081526020019060010190610848565b50505050815250509050600081602001518660ff16600581106108a9576108a9611c95565b6020020151905080600001519450806020015193506108c886826113e5565b925050509250925092565b3360008181526001602090815260408083206001600160a01b0387168452909152812054909190838110156109705760405162461bcd60e51b815260206004820152602560248201527f45524332303a2064656372656173656420616c6c6f77616e63652062656c6f7760448201527f207a65726f00000000000000000000000000000000000000000000000000000060648201526084016106e2565b6104bd8286868403610a4c565b60003361047b818585610c30565b610993610c93565b61099d82826113f9565b5050565b6001600160a01b038116600090815260208190526040812054610481565b6109c7610c93565b6001600160a01b038116610a435760405162461bcd60e51b815260206004820152602660248201527f4f776e61626c653a206e6577206f776e657220697320746865207a65726f206160448201527f646472657373000000000000000000000000000000000000000000000000000060648201526084016106e2565b6104d98161137b565b6001600160a01b038316610ac75760405162461bcd60e51b8152602060048201526024808201527f45524332303a20617070726f76652066726f6d20746865207a65726f2061646460448201527f726573730000000000000000000000000000000000000000000000000000000060648201526084016106e2565b6001600160a01b038216610b435760405162461bcd60e51b815260206004820152602260248201527f45524332303a20617070726f766520746f20746865207a65726f20616464726560448201527f737300000000000000000000000000000000000000000000000000000000000060648201526084016106e2565b6001600160a01b0383811660008181526001602090815260408083209487168084529482529182902085905590518481527f8c5be1e5ebec7d5bd14f71427d1e84f3dd0314c0f7b2291e5b200ac8c7c3b925910160405180910390a3505050565b6001600160a01b0383811660009081526001602090815260408083209386168352929052205460001981146107a75781811015610c235760405162461bcd60e51b815260206004820152601d60248201527f45524332303a20696e73756666696369656e7420616c6c6f77616e636500000060448201526064016106e2565b6107a78484848403610a4c565b80610c50846001600160a01b031660009081526020819052604090205490565b108015610c7657506001600160a01b03831660009081526008602052604090205460ff16155b15610c8357610c83610d84565b610c8e83838361145c565b505050565b6005546001600160a01b031633146105235760405162461bcd60e51b815260206004820181905260248201527f4f776e61626c653a2063616c6c6572206973206e6f7420746865206f776e657260448201526064016106e2565b4281118015610cfd575060065442105b610d495760405162461bcd60e51b815260206004820152600c60248201527f696e76616c69642074696d65000000000000000000000000000000000000000060448201526064016106e2565b60068190556040518181527f9f45a413204c2bcec0b4a34a9e2356441d0e90c93bf57171b3e0daa76ca25ddd9060200160405180910390a150565b336000908152600860205260408120610d9d8282611649565b610da79083611c82565b9150610db4600182611649565b610dbe9083611c82565b9150610dcb600282611649565b610dd59083611c82565b9150610de2600382611649565b610dec9083611c82565b9150610df9600482611649565b610e039083611c82565b915060008211610e555760405162461bcd60e51b815260206004820152601260248201527f6e6f20746f6b656e2063616e20636c61696d000000000000000000000000000060448201526064016106e2565b8160076000828254610e679190611cab565b9091555061099d905033836116b2565b6001600160a01b038216610ecd5760405162461bcd60e51b815260206004820152601c60248201527f7472616e7366657220746f20746865207a65726f20616464726573730000000060448201526064016106e2565b6001600160a01b03838116600090815260086020526040808220928516825281203392915b60058160ff16101561137257848160ff1660058110610f1357610f13611c95565b60200201511561136057826001018160ff1660058110610f3557610f35611c95565b60020201548560ff831660058110610f4f57610f4f611c95565b60200201511115610fa25760405162461bcd60e51b815260206004820152601760248201527f6c6f636b2062616c616e6365206e6f7420656e6f75676800000000000000000060448201526064016106e2565b826001018160ff1660058110610fba57610fba611c95565b60020201548560ff831660058110610fd457610fd4611c95565b60200201510361115f57816001018160ff1660058110610ff657610ff6611c95565b600202016001015460001480156110275750816001018160ff166005811061102057611020611c95565b6002020154155b6110995760405162461bcd60e51b815260206004820152602660248201527f746f20616464726573732063616e277420616363657074206c6f636b206f776e60448201527f657273686970000000000000000000000000000000000000000000000000000060648201526084016106e2565b826001018160ff16600581106110b1576110b1611c95565b60020201546001830160ff8316600581106110ce576110ce611c95565b60020201556001830160ff8216600581106110eb576110eb611c95565b6002020160010154826001018260ff166005811061110b5761110b611c95565b60020201600101819055506000836001018260ff166005811061113057611130611c95565b600202015560006001840160ff83166005811061114f5761114f611c95565b60020201600101819055506112d5565b826001018160ff166005811061117757611177611c95565b60020201600101546000146111ce5760405162461bcd60e51b815260206004820181905260248201527f66726f6d20616464726573732063616e2774207472616e73666572206c6f636b60448201526064016106e2565b816001018160ff16600581106111e6576111e6611c95565b600202016001015460001461123d5760405162461bcd60e51b815260206004820152601e60248201527f746f20616464726573732063616e2774207472616e73666572206c6f636b000060448201526064016106e2565b848160ff166005811061125257611252611c95565b6020020151836001018260ff166005811061126f5761126f611c95565b600202018054600090611283908490611cab565b9091555085905060ff82166005811061129e5761129e611c95565b6020020151826001018260ff16600581106112bb576112bb611c95565b6002020180546000906112cf908490611c82565b90915550505b7f282ef86ebc86bbf945ce5816d7cceaa78b1356064a1b75bb2e28b727afe9c44584888884898660ff166005811061130f5761130f611c95565b60200201516040516113579594939291906001600160a01b039586168152938516602085015291909316604083015260ff929092166060820152608081019190915260a00190565b60405180910390a15b8061136a81611cd7565b915050610ef2565b50505050505050565b600580546001600160a01b038381167fffffffffffffffffffffffff0000000000000000000000000000000000000000831681179093556040519116919082907f8be0079c531659141344cd1fd0a4f28419497f9722a3daafe3b4186f6b6457e090600090a35050565b60006113f18383611771565b509392505050565b6001600160a01b038216600081815260086020908152604091829020805460ff19168515159081179091558251938452908301527f8471f0edc2452c0226acdba770f2ec9dc5e69fa6883a4313205840e6d1f9cb71910160405180910390a15050565b6001600160a01b0383166114d85760405162461bcd60e51b815260206004820152602560248201527f45524332303a207472616e736665722066726f6d20746865207a65726f20616460448201527f647265737300000000000000000000000000000000000000000000000000000060648201526084016106e2565b6001600160a01b0382166115545760405162461bcd60e51b815260206004820152602360248201527f45524332303a207472616e7366657220746f20746865207a65726f206164647260448201527f657373000000000000000000000000000000000000000000000000000000000060648201526084016106e2565b6001600160a01b038316600090815260208190526040902054818110156115e35760405162461bcd60e51b815260206004820152602660248201527f45524332303a207472616e7366657220616d6f756e742065786365656473206260448201527f616c616e6365000000000000000000000000000000000000000000000000000060648201526084016106e2565b6001600160a01b03848116600081815260208181526040808320878703905593871680835291849020805487019055925185815290927fddf252ad1be2c89b69c2b068fc378daa952ba7f163c4a11628f55a4df523b3ef910160405180910390a36107a7565b600080826001018460ff166005811061166457611664611c95565b600202019050600080611696868460405180604001604052908160008201548152602001600182015481525050611771565b909250905081156116a957600183018190555b50949350505050565b6001600160a01b0382166117085760405162461bcd60e51b815260206004820152601f60248201527f45524332303a206d696e7420746f20746865207a65726f20616464726573730060448201526064016106e2565b806002600082825461171a9190611c82565b90915550506001600160a01b038216600081815260208181526040808320805486019055518481527fddf252ad1be2c89b69c2b068fc378daa952ba7f163c4a11628f55a4df523b3ef910160405180910390a35050565b6000808260200151836000015111156119b25760ff8416611829576301e133806006544261179f9190611cab565b1061182457600062278d006301e13380600654426117bd9190611cab565b6117c79190611cab565b6117d19190611cf6565b905060006117eb600c6117e5846001611c82565b906119c0565b9050600c8186600001516117ff9190611d18565b6118099190611cf6565b925084602001518361181b9190611cab565b935050506119b9565b6119b2565b60001960ff851601611866576303c26700600654426118489190611cab565b1061182457600062278d006303c26700600654426117bd9190611cab565b60011960ff85160161192957600654421061182457600062278d006006544261188f9190611cab565b6118999190611cf6565b60408051606081018252600380825260066020830152600a9282019290925291925060009082906118d7906118d090600190611cab565b85906119c0565b600381106118e7576118e7611c95565b602002015160ff169050600a8187600001516119039190611d18565b61190d9190611cf6565b935085602001518461191f9190611cab565b94505050506119b9565b60021960ff85160161198457600654421061182457600062278d00600654426119529190611cab565b61195c9190611cf6565b90506000611970600a6117e5846001611c82565b9050600a8186600001516117ff9190611d18565b60031960ff8516016119b25760065442106119b25750815160208301516119ab9082611cab565b91506119b9565b5060009050805b9250929050565b60008183106119cf57816107d9565b5090919050565b600060208083528351808285015260005b81811015611a03578581018301518582016040015282016119e7565b506000604082860101526040601f19601f8301168501019250505092915050565b80356001600160a01b0381168114611a3b57600080fd5b919050565b60008060408385031215611a5357600080fd5b611a5c83611a24565b946020939093013593505050565b600080600060608486031215611a7f57600080fd5b611a8884611a24565b9250611a9660208501611a24565b9150604084013590509250925092565b600060208284031215611ab857600080fd5b5035919050565b600060208284031215611ad157600080fd5b6107d982611a24565b634e487b7160e01b600052604160045260246000fd5b600080600060e08486031215611b0557600080fd5b611b0e84611a24565b92506020611b1d818601611a24565b925085605f860112611b2e57600080fd5b60405160a0810181811067ffffffffffffffff82111715611b5157611b51611ada565b6040528060e0870188811115611b6657600080fd5b604088015b81811015611b825780358352918401918401611b6b565b50505080925050509250925092565b60008060408385031215611ba457600080fd5b611bad83611a24565b9150602083013560ff81168114611bc357600080fd5b809150509250929050565b60008060408385031215611be157600080fd5b611bea83611a24565b915060208301358015158114611bc357600080fd5b60008060408385031215611c1257600080fd5b611c1b83611a24565b9150611c2960208401611a24565b90509250929050565b600181811c90821680611c4657607f821691505b602082108103611c6657634e487b7160e01b600052602260045260246000fd5b50919050565b634e487b7160e01b600052601160045260246000fd5b8082018082111561048157610481611c6c565b634e487b7160e01b600052603260045260246000fd5b8181038181111561048157610481611c6c565b600060018201611cd057611cd0611c6c565b5060010190565b600060ff821660ff8103611ced57611ced611c6c565b60010192915050565b600082611d1357634e487b7160e01b600052601260045260246000fd5b500490565b808202811582820484141761048157610481611c6c56fea26469706673582212203737607203d0812d31a238fd9a424e013174d026d61bdfa99e29a01198d30ce264736f6c63430008110033",
  "devdoc": {
    "kind": "dev",
    "methods": {
      "allowance(address,address)": {
        "details": "See {IERC20-allowance}."
      },
      "approve(address,uint256)": {
        "details": "See {IERC20-approve}. NOTE: If `amount` is the maximum `uint256`, the allowance is not updated on `transferFrom`. This is semantically equivalent to an infinite approval. Requirements: - `spender` cannot be the zero address."
      },
      "balanceOf(address)": {
        "details": "See {IERC20-balanceOf}."
      },
      "decimals()": {
        "details": "Returns the number of decimals used to get its user representation. For example, if `decimals` equals `2`, a balance of `505` tokens should be displayed to a user as `5.05` (`505 / 10 ** 2`). Tokens usually opt for a value of 18, imitating the relationship between Ether and Wei. This is the value {ERC20} uses, unless this function is overridden; NOTE: This information is only used for _display_ purposes: it in no way affects any of the arithmetic of the contract, including {IERC20-balanceOf} and {IERC20-transfer}."
      },
      "decreaseAllowance(address,uint256)": {
        "details": "Atomically decreases the allowance granted to `spender` by the caller. This is an alternative to {approve} that can be used as a mitigation for problems described in {IERC20-approve}. Emits an {Approval} event indicating the updated allowance. Requirements: - `spender` cannot be the zero address. - `spender` must have allowance for the caller of at least `subtractedValue`."
      },
      "increaseAllowance(address,uint256)": {
        "details": "Atomically increases the allowance granted to `spender` by the caller. This is an alternative to {approve} that can be used as a mitigation for problems described in {IERC20-approve}. Emits an {Approval} event indicating the updated allowance. Requirements: - `spender` cannot be the zero address."
      },
      "name()": {
        "details": "Returns the name of the token."
      },
      "owner()": {
        "details": "Returns the address of the current owner."
      },
      "renounceOwnership()": {
        "details": "Leaves the contract without owner. It will not be possible to call `onlyOwner` functions anymore. Can only be called by the current owner. NOTE: Renouncing ownership will leave the contract without an owner, thereby removing any functionality that is only available to the owner."
      },
      "symbol()": {
        "details": "Returns the symbol of the token, usually a shorter version of the name."
      },
      "totalSupply()": {
        "details": "See {IERC20-totalSupply}."
      },
      "transfer(address,uint256)": {
        "details": "See {IERC20-transfer}. Requirements: - `to` cannot be the zero address. - the caller must have a balance of at least `amount`."
      },
      "transferFrom(address,address,uint256)": {
        "details": "See {IERC20-transferFrom}. Emits an {Approval} event indicating the updated allowance. This is not required by the EIP. See the note at the beginning of {ERC20}. NOTE: Does not update the allowance if the current allowance is the maximum `uint256`. Requirements: - `from` and `to` cannot be the zero address. - `from` must have a balance of at least `amount`. - the caller must have allowance for ``from``'s tokens of at least `amount`."
      },
      "transferOwnership(address)": {
        "details": "Transfers ownership of the contract to a new account (`newOwner`). Can only be called by the current owner."
      }
    },
    "version": 1
  },
  "userdoc": {
    "kind": "user",
    "methods": {},
    "version": 1
  },
  "storageLayout": {
    "storage": [
      {
        "astId": 290,
        "contract": "contracts/Flame.sol:FlameToken",
        "label": "_balances",
        "offset": 0,
        "slot": "0",
        "type": "t_mapping(t_address,t_uint256)"
      },
      {
        "astId": 296,
        "contract": "contracts/Flame.sol:FlameToken",
        "label": "_allowances",
        "offset": 0,
        "slot": "1",
        "type": "t_mapping(t_address,t_mapping(t_address,t_uint256))"
      },
      {
        "astId": 298,
        "contract": "contracts/Flame.sol:FlameToken",
        "label": "_totalSupply",
        "offset": 0,
        "slot": "2",
        "type": "t_uint256"
      },
      {
        "astId": 300,
        "contract": "contracts/Flame.sol:FlameToken",
        "label": "_name",
        "offset": 0,
        "slot": "3",
        "type": "t_string_storage"
      },
      {
        "astId": 302,
        "contract": "contracts/Flame.sol:FlameToken",
        "label": "_symbol",
        "offset": 0,
        "slot": "4",
        "type": "t_string_storage"
      },
      {
        "astId": 7,
        "contract": "contracts/Flame.sol:FlameToken",
        "label": "_owner",
        "offset": 0,
        "slot": "5",
        "type": "t_address"
      },
      {
        "astId": 3601,
        "contract": "contracts/Flame.sol:FlameToken",
        "label": "UPLINE_AT",
        "offset": 0,
        "slot": "6",
        "type": "t_uint256"
      },
      {
        "astId": 3604,
        "contract": "contracts/Flame.sol:FlameToken",
        "label": "_totalLock",
        "offset": 0,
        "slot": "7",
        "type": "t_uint256"
      },
      {
        "astId": 3622,
        "contract": "contracts/Flame.sol:FlameToken",
        "label": "lockMap",
        "offset": 0,
        "slot": "8",
        "type": "t_mapping(t_address,t_struct(FlameLocker)3617_storage)"
      }
    ],
    "types": {
      "t_address": {
        "encoding": "inplace",
        "label": "address",
        "numberOfBytes": "20"
      },
      "t_array(t_struct(Locker)3609_storage)5_storage": {
        "base": "t_struct(Locker)3609_storage",
        "encoding": "inplace",
        "label": "struct FlameToken.Locker[5]",
        "numberOfBytes": "320"
      },
      "t_bool": {
        "encoding": "inplace",
        "label": "bool",
        "numberOfBytes": "1"
      },
      "t_mapping(t_address,t_mapping(t_address,t_uint256))": {
        "encoding": "mapping",
        "key": "t_address",
        "label": "mapping(address => mapping(address => uint256))",
        "numberOfBytes": "32",
        "value": "t_mapping(t_address,t_uint256)"
      },
      "t_mapping(t_address,t_struct(FlameLocker)3617_storage)": {
        "encoding": "mapping",
        "key": "t_address",
        "label": "mapping(address => struct FlameToken.FlameLocker)",
        "numberOfBytes": "32",
        "value": "t_struct(FlameLocker)3617_storage"
      },
      "t_mapping(t_address,t_uint256)": {
        "encoding": "mapping",
        "key": "t_address",
        "label": "mapping(address => uint256)",
        "numberOfBytes": "32",
        "value": "t_uint256"
      },
      "t_string_storage": {
        "encoding": "bytes",
        "label": "string",
        "numberOfBytes": "32"
      },
      "t_struct(FlameLocker)3617_storage": {
        "encoding": "inplace",
        "label": "struct FlameToken.FlameLocker",
        "members": [
          {
            "astId": 3611,
            "contract": "contracts/Flame.sol:FlameToken",
            "label": "lockTransferable",
            "offset": 0,
            "slot": "0",
            "type": "t_bool"
          },
          {
            "astId": 3616,
            "contract": "contracts/Flame.sol:FlameToken",
            "label": "locks",
            "offset": 0,
            "slot": "1",
            "type": "t_array(t_struct(Locker)3609_storage)5_storage"
          }
        ],
        "numberOfBytes": "352"
      },
      "t_struct(Locker)3609_storage": {
        "encoding": "inplace",
        "label": "struct FlameToken.Locker",
        "members": [
          {
            "astId": 3606,
            "contract": "contracts/Flame.sol:FlameToken",
            "label": "lock",
            "offset": 0,
            "slot": "0",
            "type": "t_uint256"
          },
          {
            "astId": 3608,
            "contract": "contracts/Flame.sol:FlameToken",
            "label": "claimed",
            "offset": 0,
            "slot": "1",
            "type": "t_uint256"
          }
        ],
        "numberOfBytes": "64"
      },
      "t_uint256": {
        "encoding": "inplace",
        "label": "uint256",
        "numberOfBytes": "32"
      }
    }
  }
}