{
  "address": "0xff2f4958b9d8c293c3103b74fb7a87c950ab6244",
  "abi": [
    {
      "inputs": [
        {
          "internalType": "contract FlameToken",
          "name": "_flame",
          "type": "address"
        },
        {
          "internalType": "string",
          "name": "_name",
          "type": "string"
        },
        {
          "internalType": "string",
          "name": "_symbol",
          "type": "string"
        }
      ],
      "stateMutability": "nonpayable",
      "type": "constructor"
    },
    {
      "inputs": [
        {
          "internalType": "address",
          "name": "account",
          "type": "address"
        }
      ],
      "name": "balanceOf",
      "outputs": [
        {
          "internalType": "uint256",
          "name": "",
          "type": "uint256"
        }
      ],
      "stateMutability": "view",
      "type": "function"
    },
    {
      "inputs": [],
      "name": "decimals",
      "outputs": [
        {
          "internalType": "uint8",
          "name": "",
          "type": "uint8"
        }
      ],
      "stateMutability": "view",
      "type": "function"
    },
    {
      "inputs": [],
      "name": "flameToken",
      "outputs": [
        {
          "internalType": "contract FlameToken",
          "name": "",
          "type": "address"
        }
      ],
      "stateMutability": "view",
      "type": "function"
    },
    {
      "inputs": [],
      "name": "name",
      "outputs": [
        {
          "internalType": "string",
          "name": "",
          "type": "string"
        }
      ],
      "stateMutability": "view",
      "type": "function"
    },
    {
      "inputs": [],
      "name": "symbol",
      "outputs": [
        {
          "internalType": "string",
          "name": "",
          "type": "string"
        }
      ],
      "stateMutability": "view",
      "type": "function"
    }
  ],
  "transactionHash": "0x4ee7c5d4ac85e19bb9ad232eb37a00f762b76f1b74430cdcfd0b90ee55651c80",
  "args": [
    "0x0676b34337b80A412220A9319364ED0d9dF380Ed",
    "FLT Wrapped Available",
    "FLTAvail"
  ],
  "numDeployments": 1,
  "solcInputHash": "504ebe416e39f4c6c1b59b843ccd765e",
  "bytecode": "0x60c060405234801561001057600080fd5b5060405161075b38038061075b83398101604081905261002f91610182565b6001600160a01b0383166080526000610048838261028d565b506001610055828261028d565b50826001600160a01b031663313ce5676040518163ffffffff1660e01b8152600401602060405180830381865afa158015610094573d6000803e3d6000fd5b505050506040513d601f19601f820116820180604052508101906100b8919061034c565b60ff1660a05250610376915050565b634e487b7160e01b600052604160045260246000fd5b600082601f8301126100ee57600080fd5b81516001600160401b0380821115610108576101086100c7565b604051601f8301601f19908116603f01168101908282118183101715610130576101306100c7565b8160405283815260209250868385880101111561014c57600080fd5b600091505b8382101561016e5785820183015181830184015290820190610151565b600093810190920192909252949350505050565b60008060006060848603121561019757600080fd5b83516001600160a01b03811681146101ae57600080fd5b60208501519093506001600160401b03808211156101cb57600080fd5b6101d7878388016100dd565b935060408601519150808211156101ed57600080fd5b506101fa868287016100dd565b9150509250925092565b600181811c9082168061021857607f821691505b60208210810361023857634e487b7160e01b600052602260045260246000fd5b50919050565b601f82111561028857600081815260208120601f850160051c810160208610156102655750805b601f850160051c820191505b8181101561028457828155600101610271565b5050505b505050565b81516001600160401b038111156102a6576102a66100c7565b6102ba816102b48454610204565b8461023e565b602080601f8311600181146102ef57600084156102d75750858301515b600019600386901b1c1916600185901b178555610284565b600085815260208120601f198616915b8281101561031e578886015182559484019460019091019084016102ff565b508582101561033c5787850151600019600388901b60f8161c191681555b5050505050600190811b01905550565b60006020828403121561035e57600080fd5b815160ff8116811461036f57600080fd5b9392505050565b60805160a0516103bb6103a06000396000608f01526000818160e9015261020e01526103bb6000f3fe608060405234801561001057600080fd5b50600436106100675760003560e01c806370a082311161005057806370a08231146100c35780637a754b23146100e457806395d89b411461013057600080fd5b806306fdde031461006c578063313ce5671461008a575b600080fd5b610074610138565b604051610081919061028e565b60405180910390f35b6100b17f000000000000000000000000000000000000000000000000000000000000000081565b60405160ff9091168152602001610081565b6100d66100d13660046102dc565b6101c6565b604051908152602001610081565b61010b7f000000000000000000000000000000000000000000000000000000000000000081565b60405173ffffffffffffffffffffffffffffffffffffffff9091168152602001610081565b610074610281565b6000805461014590610319565b80601f016020809104026020016040519081016040528092919081815260200182805461017190610319565b80156101be5780601f10610193576101008083540402835291602001916101be565b820191906000526020600020905b8154815290600101906020018083116101a157829003601f168201915b505050505081565b6040517fd546da9000000000000000000000000000000000000000000000000000000000815273ffffffffffffffffffffffffffffffffffffffff82811660048301526000917f00000000000000000000000000000000000000000000000000000000000000009091169063d546da9090602401602060405180830381865afa158015610257573d6000803e3d6000fd5b505050506040513d601f19601f8201168201806040525081019061027b919061036c565b92915050565b6001805461014590610319565b600060208083528351808285015260005b818110156102bb5785810183015185820160400152820161029f565b506000604082860101526040601f19601f8301168501019250505092915050565b6000602082840312156102ee57600080fd5b813573ffffffffffffffffffffffffffffffffffffffff8116811461031257600080fd5b9392505050565b600181811c9082168061032d57607f821691505b602082108103610366577f4e487b7100000000000000000000000000000000000000000000000000000000600052602260045260246000fd5b50919050565b60006020828403121561037e57600080fd5b505191905056fea26469706673582212200e81ad602c01efae4d5dbcddade18685652318c6688fba594fef513fc6138c0764736f6c63430008110033",
  "devdoc": {
    "kind": "dev",
    "methods": {},
    "version": 1
  },
  "userdoc": {
    "kind": "user",
    "methods": {},
    "version": 1
  },
  "storageLayout": {
    "storage": [
      {
        "astId": 5571,
        "contract": "contracts/TestWrapperToken.sol:TestWrappedAvailableToken",
        "label": "name",
        "offset": 0,
        "slot": "0",
        "type": "t_string_storage"
      },
      {
        "astId": 5573,
        "contract": "contracts/TestWrapperToken.sol:TestWrappedAvailableToken",
        "label": "symbol",
        "offset": 0,
        "slot": "1",
        "type": "t_string_storage"
      }
    ],
    "types": {
      "t_string_storage": {
        "encoding": "bytes",
        "label": "string",
        "numberOfBytes": "32"
      }
    }
  }
}